{"abi":[{"inputs":[{"internalType":"address","name":"_dappTokenAddress","type":"address"}],"stateMutability":"nonpayable","type":"constructor","name":"constructor"},{"anonymous":false,"inputs":[{"indexed":true,"internalType":"address","name":"previousOwner","type":"address"},{"indexed":true,"internalType":"address","name":"newOwner","type":"address"}],"name":"OwnershipTransferred","type":"event"},{"inputs":[{"internalType":"address","name":"_token","type":"address"}],"name":"addAllowedTokens","outputs":[],"stateMutability":"nonpayable","type":"function"},{"inputs":[{"internalType":"uint256","name":"","type":"uint256"}],"name":"allowedTokens","outputs":[{"internalType":"address","name":"","type":"address"}],"stateMutability":"view","type":"function"},{"inputs":[],"name":"dappToken","outputs":[{"internalType":"contract IERC20","name":"","type":"address"}],"stateMutability":"view","type":"function"},{"inputs":[{"internalType":"address","name":"_token","type":"address"}],"name":"getTokenValue","outputs":[{"internalType":"uint256","name":"","type":"uint256"},{"internalType":"uint256","name":"","type":"uint256"}],"stateMutability":"view","type":"function"},{"inputs":[{"internalType":"address","name":"_user","type":"address"},{"internalType":"address","name":"_token","type":"address"}],"name":"getUserSignleTokenValue","outputs":[{"internalType":"uint256","name":"","type":"uint256"}],"stateMutability":"view","type":"function"},{"inputs":[{"internalType":"address","name":"_user","type":"address"}],"name":"getUserTotalValue","outputs":[{"internalType":"uint256","name":"","type":"uint256"}],"stateMutability":"view","type":"function"},{"inputs":[],"name":"issueTokens","outputs":[],"stateMutability":"nonpayable","type":"function"},{"inputs":[],"name":"owner","outputs":[{"internalType":"address","name":"","type":"address"}],"stateMutability":"view","type":"function"},{"inputs":[],"name":"renounceOwnership","outputs":[],"stateMutability":"nonpayable","type":"function"},{"inputs":[{"internalType":"address","name":"_token","type":"address"},{"internalType":"address","name":"_priceFeed","type":"address"}],"name":"setPriceFeedContract","outputs":[],"stateMutability":"nonpayable","type":"function"},{"inputs":[{"internalType":"uint256","name":"_amount","type":"uint256"},{"internalType":"address","name":"_token","type":"address"}],"name":"stakeTokens","outputs":[],"stateMutability":"nonpayable","type":"function"},{"inputs":[{"internalType":"uint256","name":"","type":"uint256"}],"name":"stakers","outputs":[{"internalType":"address","name":"","type":"address"}],"stateMutability":"view","type":"function"},{"inputs":[{"internalType":"address","name":"","type":"address"},{"internalType":"address","name":"","type":"address"}],"name":"stakingBalance","outputs":[{"internalType":"uint256","name":"","type":"uint256"}],"stateMutability":"view","type":"function"},{"inputs":[{"internalType":"address","name":"_token","type":"address"}],"name":"tokenIsAllowed","outputs":[{"internalType":"bool","name":"","type":"bool"}],"stateMutability":"nonpayable","type":"function"},{"inputs":[{"internalType":"address","name":"","type":"address"}],"name":"tokenPriceFeedMapping","outputs":[{"internalType":"address","name":"","type":"address"}],"stateMutability":"view","type":"function"},{"inputs":[{"internalType":"address","name":"newOwner","type":"address"}],"name":"transferOwnership","outputs":[],"stateMutability":"nonpayable","type":"function"},{"inputs":[{"internalType":"address","name":"_token","type":"address"}],"name":"unStakeToken","outputs":[],"stateMutability":"nonpayable","type":"function"},{"inputs":[{"internalType":"address","name":"","type":"address"}],"name":"uniqueTokenStaked","outputs":[{"internalType":"uint256","name":"","type":"uint256"}],"stateMutability":"view","type":"function"}],"bytecode":"608060405234801561001057600080fd5b5060405161107e38038061107e83398101604081905261002f916100ad565b6100383361005d565b600680546001600160a01b0319166001600160a01b03929092169190911790556100dd565b600080546001600160a01b038381166001600160a01b0319831681178455604051919092169283917f8be0079c531659141344cd1fd0a4f28419497f9722a3daafe3b4186f6b6457e09190a35050565b6000602082840312156100bf57600080fd5b81516001600160a01b03811681146100d657600080fd5b9392505050565b610f92806100ec6000396000f3fe608060405234801561001057600080fd5b50600436106101165760003560e01c8063877dd39d116100a2578063afc1844111610071578063afc1844114610262578063dd5b846714610275578063f1c5d6c214610298578063f2fde38b146102c0578063fd5e6dd1146102d357600080fd5b8063877dd39d146102185780638da5cb5b1461022b578063a96de5d91461023c578063af3f5e221461024f57600080fd5b806355b08abc116100e957806355b08abc146101c25780635e5f2e26146101e25780635eb186f8146101f557806360ab585214610208578063715018a61461021057600080fd5b80630bea440d1461011b578063171e44ea1461013057806327927b3e1461014357806329161a0014610189575b600080fd5b61012e610129366004610c42565b6102e6565b005b61012e61013e366004610c6e565b6104b4565b61016c610151366004610c6e565b6003602052600090815260409020546001600160a01b031681565b6040516001600160a01b0390911681526020015b60405180910390f35b6101b4610197366004610c90565b600160209081526000928352604080842090915290825290205481565b604051908152602001610180565b6101b46101d0366004610c6e565b60026020526000908152604090205481565b61016c6101f0366004610cba565b610530565b60065461016c906001600160a01b031681565b61012e61055a565b61012e610657565b61012e610226366004610c90565b61068d565b6000546001600160a01b031661016c565b6101b461024a366004610c90565b6106e5565b6101b461025d366004610c6e565b61076c565b61012e610270366004610c6e565b610829565b610288610283366004610c6e565b610959565b6040519015158152602001610180565b6102ab6102a6366004610c6e565b6109c2565b60408051928352602083019190915201610180565b61012e6102ce366004610c6e565b610ac3565b61016c6102e1366004610cba565b610b5b565b6000821161033b5760405162461bcd60e51b815260206004820152601a60248201527f416d6f756e74206d757374206265206d6f7265207468616e203000000000000060448201526064015b60405180910390fd5b61034481610959565b6103875760405162461bcd60e51b8152602060048201526014602482015273151bdad95b881a5cc81b9bdd08185b1b1bddd95960621b6044820152606401610332565b6040516323b872dd60e01b8152336004820152306024820152604481018390526001600160a01b038216906323b872dd906064016020604051808303816000875af11580156103da573d6000803e3d6000fd5b505050506040513d601f19601f820116820180604052508101906103fe9190610cd3565b506104093382610b6b565b6001600160a01b0381166000908152600160209081526040808320338452909152902054610438908390610d0b565b6001600160a01b0382166000908152600160208181526040808420338552825280842094909455600290529190205490036104b057600480546001810182556000919091527f8a35acfbc15ff81a39ae7d344fd709f28e8600b4aa8c65c6b64bfe7fe36bd19b0180546001600160a01b031916331790555b5050565b6000546001600160a01b031633146104de5760405162461bcd60e51b815260040161033290610d23565b600580546001810182556000919091527f036b6384b5eca791c62761152d0c79bb0604c104a5fb6f4eb0703f3154bb3db00180546001600160a01b0319166001600160a01b0392909216919091179055565b6005818154811061054057600080fd5b6000918252602090912001546001600160a01b0316905081565b6000546001600160a01b031633146105845760405162461bcd60e51b815260040161033290610d23565b60005b600454811015610654576000600482815481106105a6576105a6610d58565b60009182526020822001546001600160a01b031691506105c58261076c565b60065460405163a9059cbb60e01b81526001600160a01b0385811660048301526024820184905292935091169063a9059cbb906044016020604051808303816000875af115801561061a573d6000803e3d6000fd5b505050506040513d601f19601f8201168201806040525081019061063e9190610cd3565b505050808061064c90610d6e565b915050610587565b50565b6000546001600160a01b031633146106815760405162461bcd60e51b815260040161033290610d23565b61068b6000610bd6565b565b6000546001600160a01b031633146106b75760405162461bcd60e51b815260040161033290610d23565b6001600160a01b03918216600090815260036020526040902080546001600160a01b03191691909216179055565b6001600160a01b03821660009081526002602052604081205461070a57506000610766565b600080610716846109c2565b909250905061072681600a610e6b565b6001600160a01b038086166000908152600160209081526040808320938a1683529290522054610757908490610e77565b6107619190610e96565b925050505b92915050565b6001600160a01b03811660009081526002602052604081205481906107c65760405162461bcd60e51b815260206004820152601060248201526f4e6f20746f6b656e207374616b65642160801b6044820152606401610332565b60005b6005548110156108225761080484600583815481106107ea576107ea610d58565b6000918252602090912001546001600160a01b03166106e5565b61080e9083610d0b565b91508061081a81610d6e565b9150506107c9565b5092915050565b6001600160a01b03811660009081526001602090815260408083203384529091529020548061089a5760405162461bcd60e51b815260206004820152601b60248201527f5374616b696e672062616c616e63652063616e6e6f74206265203000000000006044820152606401610332565b60405163a9059cbb60e01b8152336004820152602481018290526001600160a01b0383169063a9059cbb906044016020604051808303816000875af11580156108e7573d6000803e3d6000fd5b505050506040513d601f19601f8201168201806040525081019061090b9190610cd3565b506001600160a01b038216600090815260016020818152604080842033855282528084208490556002909152909120546109459190610eb8565b336000908152600260205260409020555050565b6000805b6005548110156109b957826001600160a01b03166005828154811061098457610984610d58565b6000918252602090912001546001600160a01b0316036109a75750600192915050565b806109b181610d6e565b91505061095d565b50600092915050565b6001600160a01b03808216600090815260036020526040808220548151633fabe5a360e21b815291519293849391169182918491839163feaf968c9160048082019260a0929091908290030181865afa158015610a23573d6000803e3d6000fd5b505050506040513d601f19601f82011682018060405250810190610a479190610ee9565b5050509150506000826001600160a01b031663313ce5676040518163ffffffff1660e01b8152600401602060405180830381865afa158015610a8d573d6000803e3d6000fd5b505050506040513d601f19601f82011682018060405250810190610ab19190610f39565b919760ff909216965090945050505050565b6000546001600160a01b03163314610aed5760405162461bcd60e51b815260040161033290610d23565b6001600160a01b038116610b525760405162461bcd60e51b815260206004820152602660248201527f4f776e61626c653a206e6577206f776e657220697320746865207a65726f206160448201526564647265737360d01b6064820152608401610332565b61065481610bd6565b6004818154811061054057600080fd5b6001600160a01b038082166000908152600160209081526040808320938616835292905220546104b0576001600160a01b038216600090815260026020526040902054610bb9906001610d0b565b6001600160a01b0383166000908152600260205260409020555050565b600080546001600160a01b038381166001600160a01b0319831681178455604051919092169283917f8be0079c531659141344cd1fd0a4f28419497f9722a3daafe3b4186f6b6457e09190a35050565b80356001600160a01b0381168114610c3d57600080fd5b919050565b60008060408385031215610c5557600080fd5b82359150610c6560208401610c26565b90509250929050565b600060208284031215610c8057600080fd5b610c8982610c26565b9392505050565b60008060408385031215610ca357600080fd5b610cac83610c26565b9150610c6560208401610c26565b600060208284031215610ccc57600080fd5b5035919050565b600060208284031215610ce557600080fd5b81518015158114610c8957600080fd5b634e487b7160e01b600052601160045260246000fd5b60008219821115610d1e57610d1e610cf5565b500190565b6020808252818101527f4f776e61626c653a2063616c6c6572206973206e6f7420746865206f776e6572604082015260600190565b634e487b7160e01b600052603260045260246000fd5b600060018201610d8057610d80610cf5565b5060010190565b600181815b80851115610dc2578160001904821115610da857610da8610cf5565b80851615610db557918102915b93841c9390800290610d8c565b509250929050565b600082610dd957506001610766565b81610de657506000610766565b8160018114610dfc5760028114610e0657610e22565b6001915050610766565b60ff841115610e1757610e17610cf5565b50506001821b610766565b5060208310610133831016604e8410600b8410161715610e45575081810a610766565b610e4f8383610d87565b8060001904821115610e6357610e63610cf5565b029392505050565b6000610c898383610dca565b6000816000190483118215151615610e9157610e91610cf5565b500290565b600082610eb357634e487b7160e01b600052601260045260246000fd5b500490565b600082821015610eca57610eca610cf5565b500390565b805169ffffffffffffffffffff81168114610c3d57600080fd5b600080600080600060a08688031215610f0157600080fd5b610f0a86610ecf565b9450602086015193506040860151925060608601519150610f2d60808701610ecf565b90509295509295909350565b600060208284031215610f4b57600080fd5b815160ff81168114610c8957600080fdfea264697066735822122046138a3ad8c6c43db1092b22c607ed7062e1fcd2d2d720a9ffbb689c9df9ba3f64736f6c634300080f0033","bytecodeSha1":"f5c8b3673348ce559c8de826deeed048795c14ce","compiler":{"evm_version":"istanbul","optimizer":{"enabled":true,"runs":200},"version":"0.8.15+commit.e14f2714"},"contractName":"TokenFarm","language":"Solidity","natspec":{"kind":"dev","methods":{"owner()":{"details":"Returns the address of the current owner."},"renounceOwnership()":{"details":"Leaves the contract without owner. It will not be possible to call `onlyOwner` functions anymore. Can only be called by the current owner. NOTE: Renouncing ownership will leave the contract without an owner, thereby removing any functionality that is only available to the owner."},"transferOwnership(address)":{"details":"Transfers ownership of the contract to a new account (`newOwner`). Can only be called by the current owner."}},"version":1},"opcodes":"PUSH1 0x80 PUSH1 0x40 MSTORE CALLVALUE DUP1 ISZERO PUSH2 0x10 JUMPI PUSH1 0x0 DUP1 REVERT JUMPDEST POP PUSH1 0x4 CALLDATASIZE LT PUSH2 0x116 JUMPI PUSH1 0x0 CALLDATALOAD PUSH1 0xE0 SHR DUP1 PUSH4 0x877DD39D GT PUSH2 0xA2 JUMPI DUP1 PUSH4 0xAFC18441 GT PUSH2 0x71 JUMPI DUP1 PUSH4 0xAFC18441 EQ PUSH2 0x262 JUMPI DUP1 PUSH4 0xDD5B8467 EQ PUSH2 0x275 JUMPI DUP1 PUSH4 0xF1C5D6C2 EQ PUSH2 0x298 JUMPI DUP1 PUSH4 0xF2FDE38B EQ PUSH2 0x2C0 JUMPI DUP1 PUSH4 0xFD5E6DD1 EQ PUSH2 0x2D3 JUMPI PUSH1 0x0 DUP1 REVERT JUMPDEST DUP1 PUSH4 0x877DD39D EQ PUSH2 0x218 JUMPI DUP1 PUSH4 0x8DA5CB5B EQ PUSH2 0x22B JUMPI DUP1 PUSH4 0xA96DE5D9 EQ PUSH2 0x23C JUMPI DUP1 PUSH4 0xAF3F5E22 EQ PUSH2 0x24F JUMPI PUSH1 0x0 DUP1 REVERT JUMPDEST DUP1 PUSH4 0x55B08ABC GT PUSH2 0xE9 JUMPI DUP1 PUSH4 0x55B08ABC EQ PUSH2 0x1C2 JUMPI DUP1 PUSH4 0x5E5F2E26 EQ PUSH2 0x1E2 JUMPI DUP1 PUSH4 0x5EB186F8 EQ PUSH2 0x1F5 JUMPI DUP1 PUSH4 0x60AB5852 EQ PUSH2 0x208 JUMPI DUP1 PUSH4 0x715018A6 EQ PUSH2 0x210 JUMPI PUSH1 0x0 DUP1 REVERT JUMPDEST DUP1 PUSH4 0xBEA440D EQ PUSH2 0x11B JUMPI DUP1 PUSH4 0x171E44EA EQ PUSH2 0x130 JUMPI DUP1 PUSH4 0x27927B3E EQ PUSH2 0x143 JUMPI DUP1 PUSH4 0x29161A00 EQ PUSH2 0x189 JUMPI JUMPDEST PUSH1 0x0 DUP1 REVERT JUMPDEST PUSH2 0x12E PUSH2 0x129 CALLDATASIZE PUSH1 0x4 PUSH2 0xC42 JUMP JUMPDEST PUSH2 0x2E6 JUMP JUMPDEST STOP JUMPDEST PUSH2 0x12E PUSH2 0x13E CALLDATASIZE PUSH1 0x4 PUSH2 0xC6E JUMP JUMPDEST PUSH2 0x4B4 JUMP JUMPDEST PUSH2 0x16C PUSH2 0x151 CALLDATASIZE PUSH1 0x4 PUSH2 0xC6E JUMP JUMPDEST PUSH1 0x3 PUSH1 0x20 MSTORE PUSH1 0x0 SWAP1 DUP2 MSTORE PUSH1 0x40 SWAP1 KECCAK256 SLOAD PUSH1 0x1 PUSH1 0x1 PUSH1 0xA0 SHL SUB AND DUP2 JUMP JUMPDEST PUSH1 0x40 MLOAD PUSH1 0x1 PUSH1 0x1 PUSH1 0xA0 SHL SUB SWAP1 SWAP2 AND DUP2 MSTORE PUSH1 0x20 ADD JUMPDEST PUSH1 0x40 MLOAD DUP1 SWAP2 SUB SWAP1 RETURN JUMPDEST PUSH2 0x1B4 PUSH2 0x197 CALLDATASIZE PUSH1 0x4 PUSH2 0xC90 JUMP JUMPDEST PUSH1 0x1 PUSH1 0x20 SWAP1 DUP2 MSTORE PUSH1 0x0 SWAP3 DUP4 MSTORE PUSH1 0x40 DUP1 DUP5 KECCAK256 SWAP1 SWAP2 MSTORE SWAP1 DUP3 MSTORE SWAP1 KECCAK256 SLOAD DUP2 JUMP JUMPDEST PUSH1 0x40 MLOAD SWAP1 DUP2 MSTORE PUSH1 0x20 ADD PUSH2 0x180 JUMP JUMPDEST PUSH2 0x1B4 PUSH2 0x1D0 CALLDATASIZE PUSH1 0x4 PUSH2 0xC6E JUMP JUMPDEST PUSH1 0x2 PUSH1 0x20 MSTORE PUSH1 0x0 SWAP1 DUP2 MSTORE PUSH1 0x40 SWAP1 KECCAK256 SLOAD DUP2 JUMP JUMPDEST PUSH2 0x16C PUSH2 0x1F0 CALLDATASIZE PUSH1 0x4 PUSH2 0xCBA JUMP JUMPDEST PUSH2 0x530 JUMP JUMPDEST PUSH1 0x6 SLOAD PUSH2 0x16C SWAP1 PUSH1 0x1 PUSH1 0x1 PUSH1 0xA0 SHL SUB AND DUP2 JUMP JUMPDEST PUSH2 0x12E PUSH2 0x55A JUMP JUMPDEST PUSH2 0x12E PUSH2 0x657 JUMP JUMPDEST PUSH2 0x12E PUSH2 0x226 CALLDATASIZE PUSH1 0x4 PUSH2 0xC90 JUMP JUMPDEST PUSH2 0x68D JUMP JUMPDEST PUSH1 0x0 SLOAD PUSH1 0x1 PUSH1 0x1 PUSH1 0xA0 SHL SUB AND PUSH2 0x16C JUMP JUMPDEST PUSH2 0x1B4 PUSH2 0x24A CALLDATASIZE PUSH1 0x4 PUSH2 0xC90 JUMP JUMPDEST PUSH2 0x6E5 JUMP JUMPDEST PUSH2 0x1B4 PUSH2 0x25D CALLDATASIZE PUSH1 0x4 PUSH2 0xC6E JUMP JUMPDEST PUSH2 0x76C JUMP JUMPDEST PUSH2 0x12E PUSH2 0x270 CALLDATASIZE PUSH1 0x4 PUSH2 0xC6E JUMP JUMPDEST PUSH2 0x829 JUMP JUMPDEST PUSH2 0x288 PUSH2 0x283 CALLDATASIZE PUSH1 0x4 PUSH2 0xC6E JUMP JUMPDEST PUSH2 0x959 JUMP JUMPDEST PUSH1 0x40 MLOAD SWAP1 ISZERO ISZERO DUP2 MSTORE PUSH1 0x20 ADD PUSH2 0x180 JUMP JUMPDEST PUSH2 0x2AB PUSH2 0x2A6 CALLDATASIZE PUSH1 0x4 PUSH2 0xC6E JUMP JUMPDEST PUSH2 0x9C2 JUMP JUMPDEST PUSH1 0x40 DUP1 MLOAD SWAP3 DUP4 MSTORE PUSH1 0x20 DUP4 ADD SWAP2 SWAP1 SWAP2 MSTORE ADD PUSH2 0x180 JUMP JUMPDEST PUSH2 0x12E PUSH2 0x2CE CALLDATASIZE PUSH1 0x4 PUSH2 0xC6E JUMP JUMPDEST PUSH2 0xAC3 JUMP JUMPDEST PUSH2 0x16C PUSH2 0x2E1 CALLDATASIZE PUSH1 0x4 PUSH2 0xCBA JUMP JUMPDEST PUSH2 0xB5B JUMP JUMPDEST PUSH1 0x0 DUP3 GT PUSH2 0x33B JUMPI PUSH1 0x40 MLOAD PUSH3 0x461BCD PUSH1 0xE5 SHL DUP2 MSTORE PUSH1 0x20 PUSH1 0x4 DUP3 ADD MSTORE PUSH1 0x1A PUSH1 0x24 DUP3 ADD MSTORE PUSH32 0x416D6F756E74206D757374206265206D6F7265207468616E2030000000000000 PUSH1 0x44 DUP3 ADD MSTORE PUSH1 0x64 ADD JUMPDEST PUSH1 0x40 MLOAD DUP1 SWAP2 SUB SWAP1 REVERT JUMPDEST PUSH2 0x344 DUP2 PUSH2 0x959 JUMP JUMPDEST PUSH2 0x387 JUMPI PUSH1 0x40 MLOAD PUSH3 0x461BCD PUSH1 0xE5 SHL DUP2 MSTORE PUSH1 0x20 PUSH1 0x4 DUP3 ADD MSTORE PUSH1 0x14 PUSH1 0x24 DUP3 ADD MSTORE PUSH20 0x151BDAD95B881A5CC81B9BDD08185B1B1BDDD959 PUSH1 0x62 SHL PUSH1 0x44 DUP3 ADD MSTORE PUSH1 0x64 ADD PUSH2 0x332 JUMP JUMPDEST PUSH1 0x40 MLOAD PUSH4 0x23B872DD PUSH1 0xE0 SHL DUP2 MSTORE CALLER PUSH1 0x4 DUP3 ADD MSTORE ADDRESS PUSH1 0x24 DUP3 ADD MSTORE PUSH1 0x44 DUP2 ADD DUP4 SWAP1 MSTORE PUSH1 0x1 PUSH1 0x1 PUSH1 0xA0 SHL SUB DUP3 AND SWAP1 PUSH4 0x23B872DD SWAP1 PUSH1 0x64 ADD PUSH1 0x20 PUSH1 0x40 MLOAD DUP1 DUP4 SUB DUP2 PUSH1 0x0 DUP8 GAS CALL ISZERO DUP1 ISZERO PUSH2 0x3DA JUMPI RETURNDATASIZE PUSH1 0x0 DUP1 RETURNDATACOPY RETURNDATASIZE PUSH1 0x0 REVERT JUMPDEST POP POP POP POP PUSH1 0x40 MLOAD RETURNDATASIZE PUSH1 0x1F NOT PUSH1 0x1F DUP3 ADD AND DUP3 ADD DUP1 PUSH1 0x40 MSTORE POP DUP2 ADD SWAP1 PUSH2 0x3FE SWAP2 SWAP1 PUSH2 0xCD3 JUMP JUMPDEST POP PUSH2 0x409 CALLER DUP3 PUSH2 0xB6B JUMP JUMPDEST PUSH1 0x1 PUSH1 0x1 PUSH1 0xA0 SHL SUB DUP2 AND PUSH1 0x0 SWAP1 DUP2 MSTORE PUSH1 0x1 PUSH1 0x20 SWAP1 DUP2 MSTORE PUSH1 0x40 DUP1 DUP4 KECCAK256 CALLER DUP5 MSTORE SWAP1 SWAP2 MSTORE SWAP1 KECCAK256 SLOAD PUSH2 0x438 SWAP1 DUP4 SWAP1 PUSH2 0xD0B JUMP JUMPDEST PUSH1 0x1 PUSH1 0x1 PUSH1 0xA0 SHL SUB DUP3 AND PUSH1 0x0 SWAP1 DUP2 MSTORE PUSH1 0x1 PUSH1 0x20 DUP2 DUP2 MSTORE PUSH1 0x40 DUP1 DUP5 KECCAK256 CALLER DUP6 MSTORE DUP3 MSTORE DUP1 DUP5 KECCAK256 SWAP5 SWAP1 SWAP5 SSTORE PUSH1 0x2 SWAP1 MSTORE SWAP2 SWAP1 KECCAK256 SLOAD SWAP1 SUB PUSH2 0x4B0 JUMPI PUSH1 0x4 DUP1 SLOAD PUSH1 0x1 DUP2 ADD DUP3 SSTORE PUSH1 0x0 SWAP2 SWAP1 SWAP2 MSTORE PUSH32 0x8A35ACFBC15FF81A39AE7D344FD709F28E8600B4AA8C65C6B64BFE7FE36BD19B ADD DUP1 SLOAD PUSH1 0x1 PUSH1 0x1 PUSH1 0xA0 SHL SUB NOT AND CALLER OR SWAP1 SSTORE JUMPDEST POP POP JUMP JUMPDEST PUSH1 0x0 SLOAD PUSH1 0x1 PUSH1 0x1 PUSH1 0xA0 SHL SUB AND CALLER EQ PUSH2 0x4DE JUMPI PUSH1 0x40 MLOAD PUSH3 0x461BCD PUSH1 0xE5 SHL DUP2 MSTORE PUSH1 0x4 ADD PUSH2 0x332 SWAP1 PUSH2 0xD23 JUMP JUMPDEST PUSH1 0x5 DUP1 SLOAD PUSH1 0x1 DUP2 ADD DUP3 SSTORE PUSH1 0x0 SWAP2 SWAP1 SWAP2 MSTORE PUSH32 0x36B6384B5ECA791C62761152D0C79BB0604C104A5FB6F4EB0703F3154BB3DB0 ADD DUP1 SLOAD PUSH1 0x1 PUSH1 0x1 PUSH1 0xA0 SHL SUB NOT AND PUSH1 0x1 PUSH1 0x1 PUSH1 0xA0 SHL SUB SWAP3 SWAP1 SWAP3 AND SWAP2 SWAP1 SWAP2 OR SWAP1 SSTORE JUMP JUMPDEST PUSH1 0x5 DUP2 DUP2 SLOAD DUP2 LT PUSH2 0x540 JUMPI PUSH1 0x0 DUP1 REVERT JUMPDEST PUSH1 0x0 SWAP2 DUP3 MSTORE PUSH1 0x20 SWAP1 SWAP2 KECCAK256 ADD SLOAD PUSH1 0x1 PUSH1 0x1 PUSH1 0xA0 SHL SUB AND SWAP1 POP DUP2 JUMP JUMPDEST PUSH1 0x0 SLOAD PUSH1 0x1 PUSH1 0x1 PUSH1 0xA0 SHL SUB AND CALLER EQ PUSH2 0x584 JUMPI PUSH1 0x40 MLOAD PUSH3 0x461BCD PUSH1 0xE5 SHL DUP2 MSTORE PUSH1 0x4 ADD PUSH2 0x332 SWAP1 PUSH2 0xD23 JUMP JUMPDEST PUSH1 0x0 JUMPDEST PUSH1 0x4 SLOAD DUP2 LT ISZERO PUSH2 0x654 JUMPI PUSH1 0x0 PUSH1 0x4 DUP3 DUP2 SLOAD DUP2 LT PUSH2 0x5A6 JUMPI PUSH2 0x5A6 PUSH2 0xD58 JUMP JUMPDEST PUSH1 0x0 SWAP2 DUP3 MSTORE PUSH1 0x20 DUP3 KECCAK256 ADD SLOAD PUSH1 0x1 PUSH1 0x1 PUSH1 0xA0 SHL SUB AND SWAP2 POP PUSH2 0x5C5 DUP3 PUSH2 0x76C JUMP JUMPDEST PUSH1 0x6 SLOAD PUSH1 0x40 MLOAD PUSH4 0xA9059CBB PUSH1 0xE0 SHL DUP2 MSTORE PUSH1 0x1 PUSH1 0x1 PUSH1 0xA0 SHL SUB DUP6 DUP2 AND PUSH1 0x4 DUP4 ADD MSTORE PUSH1 0x24 DUP3 ADD DUP5 SWAP1 MSTORE SWAP3 SWAP4 POP SWAP2 AND SWAP1 PUSH4 0xA9059CBB SWAP1 PUSH1 0x44 ADD PUSH1 0x20 PUSH1 0x40 MLOAD DUP1 DUP4 SUB DUP2 PUSH1 0x0 DUP8 GAS CALL ISZERO DUP1 ISZERO PUSH2 0x61A JUMPI RETURNDATASIZE PUSH1 0x0 DUP1 RETURNDATACOPY RETURNDATASIZE PUSH1 0x0 REVERT JUMPDEST POP POP POP POP PUSH1 0x40 MLOAD RETURNDATASIZE PUSH1 0x1F NOT PUSH1 0x1F DUP3 ADD AND DUP3 ADD DUP1 PUSH1 0x40 MSTORE POP DUP2 ADD SWAP1 PUSH2 0x63E SWAP2 SWAP1 PUSH2 0xCD3 JUMP JUMPDEST POP POP POP DUP1 DUP1 PUSH2 0x64C SWAP1 PUSH2 0xD6E JUMP JUMPDEST SWAP2 POP POP PUSH2 0x587 JUMP JUMPDEST POP JUMP JUMPDEST PUSH1 0x0 SLOAD PUSH1 0x1 PUSH1 0x1 PUSH1 0xA0 SHL SUB AND CALLER EQ PUSH2 0x681 JUMPI PUSH1 0x40 MLOAD PUSH3 0x461BCD PUSH1 0xE5 SHL DUP2 MSTORE PUSH1 0x4 ADD PUSH2 0x332 SWAP1 PUSH2 0xD23 JUMP JUMPDEST PUSH2 0x68B PUSH1 0x0 PUSH2 0xBD6 JUMP JUMPDEST JUMP JUMPDEST PUSH1 0x0 SLOAD PUSH1 0x1 PUSH1 0x1 PUSH1 0xA0 SHL SUB AND CALLER EQ PUSH2 0x6B7 JUMPI PUSH1 0x40 MLOAD PUSH3 0x461BCD PUSH1 0xE5 SHL DUP2 MSTORE PUSH1 0x4 ADD PUSH2 0x332 SWAP1 PUSH2 0xD23 JUMP JUMPDEST PUSH1 0x1 PUSH1 0x1 PUSH1 0xA0 SHL SUB SWAP2 DUP3 AND PUSH1 0x0 SWAP1 DUP2 MSTORE PUSH1 0x3 PUSH1 0x20 MSTORE PUSH1 0x40 SWAP1 KECCAK256 DUP1 SLOAD PUSH1 0x1 PUSH1 0x1 PUSH1 0xA0 SHL SUB NOT AND SWAP2 SWAP1 SWAP3 AND OR SWAP1 SSTORE JUMP JUMPDEST PUSH1 0x1 PUSH1 0x1 PUSH1 0xA0 SHL SUB DUP3 AND PUSH1 0x0 SWAP1 DUP2 MSTORE PUSH1 0x2 PUSH1 0x20 MSTORE PUSH1 0x40 DUP2 KECCAK256 SLOAD PUSH2 0x70A JUMPI POP PUSH1 0x0 PUSH2 0x766 JUMP JUMPDEST PUSH1 0x0 DUP1 PUSH2 0x716 DUP5 PUSH2 0x9C2 JUMP JUMPDEST SWAP1 SWAP3 POP SWAP1 POP PUSH2 0x726 DUP2 PUSH1 0xA PUSH2 0xE6B JUMP JUMPDEST PUSH1 0x1 PUSH1 0x1 PUSH1 0xA0 SHL SUB DUP1 DUP7 AND PUSH1 0x0 SWAP1 DUP2 MSTORE PUSH1 0x1 PUSH1 0x20 SWAP1 DUP2 MSTORE PUSH1 0x40 DUP1 DUP4 KECCAK256 SWAP4 DUP11 AND DUP4 MSTORE SWAP3 SWAP1 MSTORE KECCAK256 SLOAD PUSH2 0x757 SWAP1 DUP5 SWAP1 PUSH2 0xE77 JUMP JUMPDEST PUSH2 0x761 SWAP2 SWAP1 PUSH2 0xE96 JUMP JUMPDEST SWAP3 POP POP POP JUMPDEST SWAP3 SWAP2 POP POP JUMP JUMPDEST PUSH1 0x1 PUSH1 0x1 PUSH1 0xA0 SHL SUB DUP2 AND PUSH1 0x0 SWAP1 DUP2 MSTORE PUSH1 0x2 PUSH1 0x20 MSTORE PUSH1 0x40 DUP2 KECCAK256 SLOAD DUP2 SWAP1 PUSH2 0x7C6 JUMPI PUSH1 0x40 MLOAD PUSH3 0x461BCD PUSH1 0xE5 SHL DUP2 MSTORE PUSH1 0x20 PUSH1 0x4 DUP3 ADD MSTORE PUSH1 0x10 PUSH1 0x24 DUP3 ADD MSTORE PUSH16 0x4E6F20746F6B656E207374616B656421 PUSH1 0x80 SHL PUSH1 0x44 DUP3 ADD MSTORE PUSH1 0x64 ADD PUSH2 0x332 JUMP JUMPDEST PUSH1 0x0 JUMPDEST PUSH1 0x5 SLOAD DUP2 LT ISZERO PUSH2 0x822 JUMPI PUSH2 0x804 DUP5 PUSH1 0x5 DUP4 DUP2 SLOAD DUP2 LT PUSH2 0x7EA JUMPI PUSH2 0x7EA PUSH2 0xD58 JUMP JUMPDEST PUSH1 0x0 SWAP2 DUP3 MSTORE PUSH1 0x20 SWAP1 SWAP2 KECCAK256 ADD SLOAD PUSH1 0x1 PUSH1 0x1 PUSH1 0xA0 SHL SUB AND PUSH2 0x6E5 JUMP JUMPDEST PUSH2 0x80E SWAP1 DUP4 PUSH2 0xD0B JUMP JUMPDEST SWAP2 POP DUP1 PUSH2 0x81A DUP2 PUSH2 0xD6E JUMP JUMPDEST SWAP2 POP POP PUSH2 0x7C9 JUMP JUMPDEST POP SWAP3 SWAP2 POP POP JUMP JUMPDEST PUSH1 0x1 PUSH1 0x1 PUSH1 0xA0 SHL SUB DUP2 AND PUSH1 0x0 SWAP1 DUP2 MSTORE PUSH1 0x1 PUSH1 0x20 SWAP1 DUP2 MSTORE PUSH1 0x40 DUP1 DUP4 KECCAK256 CALLER DUP5 MSTORE SWAP1 SWAP2 MSTORE SWAP1 KECCAK256 SLOAD DUP1 PUSH2 0x89A JUMPI PUSH1 0x40 MLOAD PUSH3 0x461BCD PUSH1 0xE5 SHL DUP2 MSTORE PUSH1 0x20 PUSH1 0x4 DUP3 ADD MSTORE PUSH1 0x1B PUSH1 0x24 DUP3 ADD MSTORE PUSH32 0x5374616B696E672062616C616E63652063616E6E6F7420626520300000000000 PUSH1 0x44 DUP3 ADD MSTORE PUSH1 0x64 ADD PUSH2 0x332 JUMP JUMPDEST PUSH1 0x40 MLOAD PUSH4 0xA9059CBB PUSH1 0xE0 SHL DUP2 MSTORE CALLER PUSH1 0x4 DUP3 ADD MSTORE PUSH1 0x24 DUP2 ADD DUP3 SWAP1 MSTORE PUSH1 0x1 PUSH1 0x1 PUSH1 0xA0 SHL SUB DUP4 AND SWAP1 PUSH4 0xA9059CBB SWAP1 PUSH1 0x44 ADD PUSH1 0x20 PUSH1 0x40 MLOAD DUP1 DUP4 SUB DUP2 PUSH1 0x0 DUP8 GAS CALL ISZERO DUP1 ISZERO PUSH2 0x8E7 JUMPI RETURNDATASIZE PUSH1 0x0 DUP1 RETURNDATACOPY RETURNDATASIZE PUSH1 0x0 REVERT JUMPDEST POP POP POP POP PUSH1 0x40 MLOAD RETURNDATASIZE PUSH1 0x1F NOT PUSH1 0x1F DUP3 ADD AND DUP3 ADD DUP1 PUSH1 0x40 MSTORE POP DUP2 ADD SWAP1 PUSH2 0x90B SWAP2 SWAP1 PUSH2 0xCD3 JUMP JUMPDEST POP PUSH1 0x1 PUSH1 0x1 PUSH1 0xA0 SHL SUB DUP3 AND PUSH1 0x0 SWAP1 DUP2 MSTORE PUSH1 0x1 PUSH1 0x20 DUP2 DUP2 MSTORE PUSH1 0x40 DUP1 DUP5 KECCAK256 CALLER DUP6 MSTORE DUP3 MSTORE DUP1 DUP5 KECCAK256 DUP5 SWAP1 SSTORE PUSH1 0x2 SWAP1 SWAP2 MSTORE SWAP1 SWAP2 KECCAK256 SLOAD PUSH2 0x945 SWAP2 SWAP1 PUSH2 0xEB8 JUMP JUMPDEST CALLER PUSH1 0x0 SWAP1 DUP2 MSTORE PUSH1 0x2 PUSH1 0x20 MSTORE PUSH1 0x40 SWAP1 KECCAK256 SSTORE POP POP JUMP JUMPDEST PUSH1 0x0 DUP1 JUMPDEST PUSH1 0x5 SLOAD DUP2 LT ISZERO PUSH2 0x9B9 JUMPI DUP3 PUSH1 0x1 PUSH1 0x1 PUSH1 0xA0 SHL SUB AND PUSH1 0x5 DUP3 DUP2 SLOAD DUP2 LT PUSH2 0x984 JUMPI PUSH2 0x984 PUSH2 0xD58 JUMP JUMPDEST PUSH1 0x0 SWAP2 DUP3 MSTORE PUSH1 0x20 SWAP1 SWAP2 KECCAK256 ADD SLOAD PUSH1 0x1 PUSH1 0x1 PUSH1 0xA0 SHL SUB AND SUB PUSH2 0x9A7 JUMPI POP PUSH1 0x1 SWAP3 SWAP2 POP POP JUMP JUMPDEST DUP1 PUSH2 0x9B1 DUP2 PUSH2 0xD6E JUMP JUMPDEST SWAP2 POP POP PUSH2 0x95D JUMP JUMPDEST POP PUSH1 0x0 SWAP3 SWAP2 POP POP JUMP JUMPDEST PUSH1 0x1 PUSH1 0x1 PUSH1 0xA0 SHL SUB DUP1 DUP3 AND PUSH1 0x0 SWAP1 DUP2 MSTORE PUSH1 0x3 PUSH1 0x20 MSTORE PUSH1 0x40 DUP1 DUP3 KECCAK256 SLOAD DUP2 MLOAD PUSH4 0x3FABE5A3 PUSH1 0xE2 SHL DUP2 MSTORE SWAP2 MLOAD SWAP3 SWAP4 DUP5 SWAP4 SWAP2 AND SWAP2 DUP3 SWAP2 DUP5 SWAP2 DUP4 SWAP2 PUSH4 0xFEAF968C SWAP2 PUSH1 0x4 DUP1 DUP3 ADD SWAP3 PUSH1 0xA0 SWAP3 SWAP1 SWAP2 SWAP1 DUP3 SWAP1 SUB ADD DUP2 DUP7 GAS STATICCALL ISZERO DUP1 ISZERO PUSH2 0xA23 JUMPI RETURNDATASIZE PUSH1 0x0 DUP1 RETURNDATACOPY RETURNDATASIZE PUSH1 0x0 REVERT JUMPDEST POP POP POP POP PUSH1 0x40 MLOAD RETURNDATASIZE PUSH1 0x1F NOT PUSH1 0x1F DUP3 ADD AND DUP3 ADD DUP1 PUSH1 0x40 MSTORE POP DUP2 ADD SWAP1 PUSH2 0xA47 SWAP2 SWAP1 PUSH2 0xEE9 JUMP JUMPDEST POP POP POP SWAP2 POP POP PUSH1 0x0 DUP3 PUSH1 0x1 PUSH1 0x1 PUSH1 0xA0 SHL SUB AND PUSH4 0x313CE567 PUSH1 0x40 MLOAD DUP2 PUSH4 0xFFFFFFFF AND PUSH1 0xE0 SHL DUP2 MSTORE PUSH1 0x4 ADD PUSH1 0x20 PUSH1 0x40 MLOAD DUP1 DUP4 SUB DUP2 DUP7 GAS STATICCALL ISZERO DUP1 ISZERO PUSH2 0xA8D JUMPI RETURNDATASIZE PUSH1 0x0 DUP1 RETURNDATACOPY RETURNDATASIZE PUSH1 0x0 REVERT JUMPDEST POP POP POP POP PUSH1 0x40 MLOAD RETURNDATASIZE PUSH1 0x1F NOT PUSH1 0x1F DUP3 ADD AND DUP3 ADD DUP1 PUSH1 0x40 MSTORE POP DUP2 ADD SWAP1 PUSH2 0xAB1 SWAP2 SWAP1 PUSH2 0xF39 JUMP JUMPDEST SWAP2 SWAP8 PUSH1 0xFF SWAP1 SWAP3 AND SWAP7 POP SWAP1 SWAP5 POP POP POP POP POP JUMP JUMPDEST PUSH1 0x0 SLOAD PUSH1 0x1 PUSH1 0x1 PUSH1 0xA0 SHL SUB AND CALLER EQ PUSH2 0xAED JUMPI PUSH1 0x40 MLOAD PUSH3 0x461BCD PUSH1 0xE5 SHL DUP2 MSTORE PUSH1 0x4 ADD PUSH2 0x332 SWAP1 PUSH2 0xD23 JUMP JUMPDEST PUSH1 0x1 PUSH1 0x1 PUSH1 0xA0 SHL SUB DUP2 AND PUSH2 0xB52 JUMPI PUSH1 0x40 MLOAD PUSH3 0x461BCD PUSH1 0xE5 SHL DUP2 MSTORE PUSH1 0x20 PUSH1 0x4 DUP3 ADD MSTORE PUSH1 0x26 PUSH1 0x24 DUP3 ADD MSTORE PUSH32 0x4F776E61626C653A206E6577206F776E657220697320746865207A65726F2061 PUSH1 0x44 DUP3 ADD MSTORE PUSH6 0x646472657373 PUSH1 0xD0 SHL PUSH1 0x64 DUP3 ADD MSTORE PUSH1 0x84 ADD PUSH2 0x332 JUMP JUMPDEST PUSH2 0x654 DUP2 PUSH2 0xBD6 JUMP JUMPDEST PUSH1 0x4 DUP2 DUP2 SLOAD DUP2 LT PUSH2 0x540 JUMPI PUSH1 0x0 DUP1 REVERT JUMPDEST PUSH1 0x1 PUSH1 0x1 PUSH1 0xA0 SHL SUB DUP1 DUP3 AND PUSH1 0x0 SWAP1 DUP2 MSTORE PUSH1 0x1 PUSH1 0x20 SWAP1 DUP2 MSTORE PUSH1 0x40 DUP1 DUP4 KECCAK256 SWAP4 DUP7 AND DUP4 MSTORE SWAP3 SWAP1 MSTORE KECCAK256 SLOAD PUSH2 0x4B0 JUMPI PUSH1 0x1 PUSH1 0x1 PUSH1 0xA0 SHL SUB DUP3 AND PUSH1 0x0 SWAP1 DUP2 MSTORE PUSH1 0x2 PUSH1 0x20 MSTORE PUSH1 0x40 SWAP1 KECCAK256 SLOAD PUSH2 0xBB9 SWAP1 PUSH1 0x1 PUSH2 0xD0B JUMP JUMPDEST PUSH1 0x1 PUSH1 0x1 PUSH1 0xA0 SHL SUB DUP4 AND PUSH1 0x0 SWAP1 DUP2 MSTORE PUSH1 0x2 PUSH1 0x20 MSTORE PUSH1 0x40 SWAP1 KECCAK256 SSTORE POP POP JUMP JUMPDEST PUSH1 0x0 DUP1 SLOAD PUSH1 0x1 PUSH1 0x1 PUSH1 0xA0 SHL SUB DUP4 DUP2 AND PUSH1 0x1 PUSH1 0x1 PUSH1 0xA0 SHL SUB NOT DUP4 AND DUP2 OR DUP5 SSTORE PUSH1 0x40 MLOAD SWAP2 SWAP1 SWAP3 AND SWAP3 DUP4 SWAP2 PUSH32 0x8BE0079C531659141344CD1FD0A4F28419497F9722A3DAAFE3B4186F6B6457E0 SWAP2 SWAP1 LOG3 POP POP JUMP JUMPDEST DUP1 CALLDATALOAD PUSH1 0x1 PUSH1 0x1 PUSH1 0xA0 SHL SUB DUP2 AND DUP2 EQ PUSH2 0xC3D JUMPI PUSH1 0x0 DUP1 REVERT JUMPDEST SWAP2 SWAP1 POP JUMP JUMPDEST PUSH1 0x0 DUP1 PUSH1 0x40 DUP4 DUP6 SUB SLT ISZERO PUSH2 0xC55 JUMPI PUSH1 0x0 DUP1 REVERT JUMPDEST DUP3 CALLDATALOAD SWAP2 POP PUSH2 0xC65 PUSH1 0x20 DUP5 ADD PUSH2 0xC26 JUMP JUMPDEST SWAP1 POP SWAP3 POP SWAP3 SWAP1 POP JUMP JUMPDEST PUSH1 0x0 PUSH1 0x20 DUP3 DUP5 SUB SLT ISZERO PUSH2 0xC80 JUMPI PUSH1 0x0 DUP1 REVERT JUMPDEST PUSH2 0xC89 DUP3 PUSH2 0xC26 JUMP JUMPDEST SWAP4 SWAP3 POP POP POP JUMP JUMPDEST PUSH1 0x0 DUP1 PUSH1 0x40 DUP4 DUP6 SUB SLT ISZERO PUSH2 0xCA3 JUMPI PUSH1 0x0 DUP1 REVERT JUMPDEST PUSH2 0xCAC DUP4 PUSH2 0xC26 JUMP JUMPDEST SWAP2 POP PUSH2 0xC65 PUSH1 0x20 DUP5 ADD PUSH2 0xC26 JUMP JUMPDEST PUSH1 0x0 PUSH1 0x20 DUP3 DUP5 SUB SLT ISZERO PUSH2 0xCCC JUMPI PUSH1 0x0 DUP1 REVERT JUMPDEST POP CALLDATALOAD SWAP2 SWAP1 POP JUMP JUMPDEST PUSH1 0x0 PUSH1 0x20 DUP3 DUP5 SUB SLT ISZERO PUSH2 0xCE5 JUMPI PUSH1 0x0 DUP1 REVERT JUMPDEST DUP2 MLOAD DUP1 ISZERO ISZERO DUP2 EQ PUSH2 0xC89 JUMPI PUSH1 0x0 DUP1 REVERT JUMPDEST PUSH4 0x4E487B71 PUSH1 0xE0 SHL PUSH1 0x0 MSTORE PUSH1 0x11 PUSH1 0x4 MSTORE PUSH1 0x24 PUSH1 0x0 REVERT JUMPDEST PUSH1 0x0 DUP3 NOT DUP3 GT ISZERO PUSH2 0xD1E JUMPI PUSH2 0xD1E PUSH2 0xCF5 JUMP JUMPDEST POP ADD SWAP1 JUMP JUMPDEST PUSH1 0x20 DUP1 DUP3 MSTORE DUP2 DUP2 ADD MSTORE PUSH32 0x4F776E61626C653A2063616C6C6572206973206E6F7420746865206F776E6572 PUSH1 0x40 DUP3 ADD MSTORE PUSH1 0x60 ADD SWAP1 JUMP JUMPDEST PUSH4 0x4E487B71 PUSH1 0xE0 SHL PUSH1 0x0 MSTORE PUSH1 0x32 PUSH1 0x4 MSTORE PUSH1 0x24 PUSH1 0x0 REVERT JUMPDEST PUSH1 0x0 PUSH1 0x1 DUP3 ADD PUSH2 0xD80 JUMPI PUSH2 0xD80 PUSH2 0xCF5 JUMP JUMPDEST POP PUSH1 0x1 ADD SWAP1 JUMP JUMPDEST PUSH1 0x1 DUP2 DUP2 JUMPDEST DUP1 DUP6 GT ISZERO PUSH2 0xDC2 JUMPI DUP2 PUSH1 0x0 NOT DIV DUP3 GT ISZERO PUSH2 0xDA8 JUMPI PUSH2 0xDA8 PUSH2 0xCF5 JUMP JUMPDEST DUP1 DUP6 AND ISZERO PUSH2 0xDB5 JUMPI SWAP2 DUP2 MUL SWAP2 JUMPDEST SWAP4 DUP5 SHR SWAP4 SWAP1 DUP1 MUL SWAP1 PUSH2 0xD8C JUMP JUMPDEST POP SWAP3 POP SWAP3 SWAP1 POP JUMP JUMPDEST PUSH1 0x0 DUP3 PUSH2 0xDD9 JUMPI POP PUSH1 0x1 PUSH2 0x766 JUMP JUMPDEST DUP2 PUSH2 0xDE6 JUMPI POP PUSH1 0x0 PUSH2 0x766 JUMP JUMPDEST DUP2 PUSH1 0x1 DUP2 EQ PUSH2 0xDFC JUMPI PUSH1 0x2 DUP2 EQ PUSH2 0xE06 JUMPI PUSH2 0xE22 JUMP JUMPDEST PUSH1 0x1 SWAP2 POP POP PUSH2 0x766 JUMP JUMPDEST PUSH1 0xFF DUP5 GT ISZERO PUSH2 0xE17 JUMPI PUSH2 0xE17 PUSH2 0xCF5 JUMP JUMPDEST POP POP PUSH1 0x1 DUP3 SHL PUSH2 0x766 JUMP JUMPDEST POP PUSH1 0x20 DUP4 LT PUSH2 0x133 DUP4 LT AND PUSH1 0x4E DUP5 LT PUSH1 0xB DUP5 LT AND OR ISZERO PUSH2 0xE45 JUMPI POP DUP2 DUP2 EXP PUSH2 0x766 JUMP JUMPDEST PUSH2 0xE4F DUP4 DUP4 PUSH2 0xD87 JUMP JUMPDEST DUP1 PUSH1 0x0 NOT DIV DUP3 GT ISZERO PUSH2 0xE63 JUMPI PUSH2 0xE63 PUSH2 0xCF5 JUMP JUMPDEST MUL SWAP4 SWAP3 POP POP POP JUMP JUMPDEST PUSH1 0x0 PUSH2 0xC89 DUP4 DUP4 PUSH2 0xDCA JUMP JUMPDEST PUSH1 0x0 DUP2 PUSH1 0x0 NOT DIV DUP4 GT DUP3 ISZERO ISZERO AND ISZERO PUSH2 0xE91 JUMPI PUSH2 0xE91 PUSH2 0xCF5 JUMP JUMPDEST POP MUL SWAP1 JUMP JUMPDEST PUSH1 0x0 DUP3 PUSH2 0xEB3 JUMPI PUSH4 0x4E487B71 PUSH1 0xE0 SHL PUSH1 0x0 MSTORE PUSH1 0x12 PUSH1 0x4 MSTORE PUSH1 0x24 PUSH1 0x0 REVERT JUMPDEST POP DIV SWAP1 JUMP JUMPDEST PUSH1 0x0 DUP3 DUP3 LT ISZERO PUSH2 0xECA JUMPI PUSH2 0xECA PUSH2 0xCF5 JUMP JUMPDEST POP SUB SWAP1 JUMP JUMPDEST DUP1 MLOAD PUSH10 0xFFFFFFFFFFFFFFFFFFFF DUP2 AND DUP2 EQ PUSH2 0xC3D JUMPI PUSH1 0x0 DUP1 REVERT JUMPDEST PUSH1 0x0 DUP1 PUSH1 0x0 DUP1 PUSH1 0x0 PUSH1 0xA0 DUP7 DUP9 SUB SLT ISZERO PUSH2 0xF01 JUMPI PUSH1 0x0 DUP1 REVERT JUMPDEST PUSH2 0xF0A DUP7 PUSH2 0xECF JUMP JUMPDEST SWAP5 POP PUSH1 0x20 DUP7 ADD MLOAD SWAP4 POP PUSH1 0x40 DUP7 ADD MLOAD SWAP3 POP PUSH1 0x60 DUP7 ADD MLOAD SWAP2 POP PUSH2 0xF2D PUSH1 0x80 DUP8 ADD PUSH2 0xECF JUMP JUMPDEST SWAP1 POP SWAP3 SWAP6 POP SWAP3 SWAP6 SWAP1 SWAP4 POP JUMP JUMPDEST PUSH1 0x0 PUSH1 0x20 DUP3 DUP5 SUB SLT ISZERO PUSH2 0xF4B JUMPI PUSH1 0x0 DUP1 REVERT JUMPDEST DUP2 MLOAD PUSH1 0xFF DUP2 AND DUP2 EQ PUSH2 0xC89 JUMPI PUSH1 0x0 DUP1 REVERT INVALID LOG2 PUSH5 0x6970667358 0x22 SLT KECCAK256 CHAINID SGT DUP11 GASPRICE 0xD8 0xC6 0xC4 RETURNDATASIZE 0xB1 MULMOD 0x2B 0x22 0xC6 SMOD 0xED PUSH17 0x62E1FCD2D2D720A9FFBB689C9DF9BA3F64 PUSH20 0x6F6C634300080F00330000000000000000000000 ","sha1":"ead10abf8edc5ec41138ff0bc6ad383bbf14d105","source":"// stakeTokens - DONE\n// unStakeTokens\n// issueTokens - DONE\n// addAllowedTokens - DONE\n// getEthValue - DONE\n\n// SPDX-License-Identifier: MIT\npragma solidity ^0.8.0;\n\nimport \"@openzeppelin/contracts/access/Ownable.sol\";\nimport \"@openzeppelin/contracts/token/ERC20/IERC20.sol\";\nimport \"@chainlink/contracts/src/v0.8/interfaces/AggregatorV3Interface.sol\";\n\ncontract TokenFarm is Ownable{\n    \n    // mapping token address to staker address to amount\n    mapping(address => mapping(address => uint256)) public stakingBalance;\n    mapping(address => uint256) public uniqueTokenStaked;\n    // mapping token to price feed\n    mapping(address => address) public tokenPriceFeedMapping;\n\n    address[] public stakers;\n    address[] public allowedTokens;\n\n    IERC20 public dappToken;\n\n    constructor(address _dappTokenAddress) public {\n        dappToken = IERC20(_dappTokenAddress);\n    }\n\n    function setPriceFeedContract(address _token, address _priceFeed) public onlyOwner {\n        tokenPriceFeedMapping[_token] = _priceFeed;\n    }\n\n    function issueTokens() public onlyOwner {\n        for(uint256 stakersIndex=0; stakersIndex < stakers.length; stakersIndex ++){\n            address recipient = stakers[stakersIndex];\n            uint256 userTotalValue = getUserTotalValue(recipient);\n            dappToken.transfer(recipient, userTotalValue);\n        }\n\n    }\n\n    function getUserTotalValue(address _user) public view returns(uint256) {\n        uint256 totalValue = 0;\n        require(uniqueTokenStaked[_user] > 0, \"No token staked!\");\n        for(uint256 allowedTokenIndex = 0; allowedTokenIndex < allowedTokens.length; allowedTokenIndex ++){\n            totalValue = totalValue + getUserSignleTokenValue(_user, allowedTokens[allowedTokenIndex]);\n        }\n        return totalValue;\n    }\n\n    function getUserSignleTokenValue(address _user, address _token) public view returns(uint256){\n        if (uniqueTokenStaked[_user] <= 0) {\n            return 0;\n        }\n        (uint256 price, uint256 decimals) = getTokenValue(_token);\n        return (stakingBalance[_token][_user] * price / (10**decimals));\n    }\n\n    function getTokenValue(address _token) public view returns(uint256, uint256) {\n        // priceFeedAddress\n        address priceFeedAddress = tokenPriceFeedMapping[_token];\n        AggregatorV3Interface priceFeed = AggregatorV3Interface(priceFeedAddress);\n        (,int256 price,,,) = priceFeed.latestRoundData();\n        uint256 decimals = uint256(priceFeed.decimals());\n        return (uint256(price), decimals);\n    }\n\n    function stakeTokens(uint256 _amount, address _token) public {\n        require(_amount > 0, \"Amount must be more than 0\");\n        require(tokenIsAllowed(_token), \"Token is not allowed\");\n        IERC20(_token).transferFrom(msg.sender, address(this), _amount);\n        updateUniqueTokenStaked(msg.sender, _token);\n        stakingBalance[_token][msg.sender] = stakingBalance[_token][msg.sender] + _amount;\n        if (uniqueTokenStaked[msg.sender] == 1) {\n            stakers.push(msg.sender);\n        }\n    }\n\n    function unStakeToken(address _token) public {\n        uint256 balance = stakingBalance[_token][msg.sender];\n        require(balance > 0, \"Staking balance cannot be 0\");\n        IERC20(_token).transfer(msg.sender, balance);\n        stakingBalance[_token][msg.sender] = 0;\n        uniqueTokenStaked[msg.sender] = uniqueTokenStaked[msg.sender] - 1;\n    }\n\n    function updateUniqueTokenStaked(address _user, address _token) internal {\n        if (stakingBalance[_token][_user] <= 0){\n            uniqueTokenStaked[_user] = uniqueTokenStaked[_user] +1;\n        }\n    }\n\n    function addAllowedTokens(address _token) public onlyOwner {\n        allowedTokens.push(_token);\n    }\n\n    function tokenIsAllowed(address _token) public returns(bool) {\n        for(uint256 allowedTokensIndex=0; allowedTokensIndex < allowedTokens.length; allowedTokensIndex ++){\n            if (allowedTokens[allowedTokensIndex] == _token) {\n                return true;\n            }\n        }\n        return false;\n    }\n\n}","sourcePath":"contracts/TokenFarm.sol","type":"contract","deployment":{"address":"0x3C920c11860bef70caA117e1B15f5e1bd2e8B871","chainid":"42","blockHeight":33064351}}